:100000000C942A000C9447000C9447000C94470071
:100010000C9447000C9447000C9447000C94470044
:100020000C9447000C9447000C9447000C94470034
:100030000C9447000C9447000C9447000C94470024
:100040000C9447000C9447000C9447000C94470014
:100050000C94470011241FBECFE5D8E0DEBFCDBF12
:1000600010E0A0E6B0E0E6ECF5E002C005900D92ED
:10007000A63EB107D9F711E0A6EEB0E001C01D928F
:10008000A631B107E1F70E9483020C94E1020C94BF
:10009000000008950895843008F061C0683008F0C9
:1000A0005EC08130F1F0813038F0823009F443C015
:1000B000833009F054C02AC08AB321E030E0062E14
:1000C00002C0220F331F0A94E2F720952823842FC1
:1000D00090E002C0880F991F6A95E2F7282B2ABB8F
:1000E000089587B321E030E0062E02C0220F331FAF
:1000F0000A94E2F720952823842F90E002C0880F0D
:10010000991F6A95E2F7282B27BB089584B321E055
:1001100030E0062E02C0220F331F0A94E2F720952A
:100120002823842F90E002C0880F991F6A95E2F778
:10013000282B24BB089581B321E030E0062E02C0B5
:10014000220F331F0A94E2F720952823842F90E092
:1001500002C0880F991F6A95E2F7282B21BB0895EA
:10016000843008F061C0683008F05EC08130F1F082
:10017000813038F0823009F443C0833009F054C034
:100180002AC08BB321E030E0062E02C0220F331FBD
:100190000A94E2F720952823842F90E002C0880F6C
:1001A000991F6A95E2F7282B2BBB089588B321E0AD
:1001B00030E0062E02C0220F331F0A94E2F720958A
:1001C0002823842F90E002C0880F991F6A95E2F7D8
:1001D000282B28BB089585B321E030E0062E02C00D
:1001E000220F331F0A94E2F720952823842F90E0F2
:1001F00002C0880F991F6A95E2F7282B25BB089546
:1002000082B321E030E0062E02C0220F331F0A9491
:10021000E2F720952823842F90E002C0880F991FD1
:100220006A95E2F7282B22BB0895843080F4813050
:1002300049F0813028F0823049F0833041F404C025
:100240006ABB089567BB089564BB089561BB0895B8
:10025000843080F4813049F0813028F0823049F0D8
:10026000833041F404C06BBB089568BB089565BB3F
:10027000089562BB08958430C8F4813049F081301C
:1002800028F0823089F0833089F404C029B303C098
:1002900026B301C023B381E090E002C0880F991F0C
:1002A0006A95E2F7282303C020B3F5CF20E0822F20
:1002B0000895843088F4813049F0813028F082300C
:1002C00049F0833049F404C089B3089586B3089592
:1002D00083B3089580B3089580E00895882319F0CA
:1002E000813091F409C0E62FF0E0E255FF4F82E043
:1002F00060810E9428010895E62FF0E0E255FF4F4B
:1003000081E060810E9428010895882319F08130DE
:1003100091F409C0E62FF0E0EA54FF4F82E06081DB
:100320000E9428010895E62FF0E0EA54FF4F81E093
:1003300060810E9428010895882319F0813081F49A
:1003400008C0809178006091790041E00E94B0007F
:100350000895809193006091940041E00E94B00064
:100360000895882319F0813081F408C080917800C5
:100370006091790040E00E94B00008958091930060
:100380006091940040E00E94B0000895CF93DF9305
:10039000882319F0813021F512C0C0E6D0E08881B1
:1003A000698141E00E944B00888169814A810E94F5
:1003B000B000239680E0CB37D80789F711C0CBE790
:1003C000D0E08881698141E00E944B008881698189
:1003D0004A810E94B000239680E0C639D80789F789
:1003E000DF91CF910895462F90E0FC01EE0FFF1FA3
:1003F000E80FF91FEA53FF4F808161810E94B0002E
:100400000895EF92FF920F931F9390E08C01000FDD
:10041000111F080F191F0A531F4FF801F080E180C8
:100420008F2D6E2D41E00E944B008F2D6E2DF80117
:1004300042810E94B0001F910F91FF90EF900895AC
:10044000CF93DF93C6ECD0E08881698141E00E94C0
:100450004B00239680E0CE3DD807B1F7DF91CF91D6
:1004600008950F931F9390E08C01000F111F080F48
:10047000191F0A561F4FF801808161810E943B01BC
:10048000282FF8019281913021F480E0222349F451
:1004900007C0992311F08FEF04C080E0213009F4E8
:1004A00081E01F910F9108950F931F9390E08C01AD
:1004B000000F111F080F191F0A561F4FF8018081E6
:1004C000618140E00E944B00F8018081618142819E
:1004D0000E94B0001F910F910895CF93DF93C6E95A
:1004E000D0E08881698140E00E944B008881698169
:1004F0004A810E94B000239680E0CE3AD80789F75F
:10050000DF91CF910895CF93DF9380E00E94C601E1
:1005100080E00E94B10180E064E00E946E01C8ECBE
:10052000D0E080E00E94B10180E060E00E946E01B6
:100530008EE591E0FE013197F1F70197D9F780E060
:1005400061E00E946E018EE591E0FE013197F1F7C6
:100550000197D9F780E062E00E946E018EE591E09C
:10056000FE013197F1F70197D9F780E063E00E942F
:100570006E018EE591E0FE013197F1F70197D9F711
:1005800080E064E00E946E018EE591E0FE0131970B
:10059000F1F70197D9F780E065E00E946E018EE5E2
:1005A00091E0FE013197F1F70197D9F780E00E94C1
:1005B0009C0188E893E1FE013197F1F70197D9F7A3
:0605C000B0CFF894FFCF5C
:1005C600020000020100020200020300020400020F
:1005D60005000206000207000300010100000101F8
:1005E60000010200010300010400010500010600EC
:1005F60001070003010100000102010102020102DC
:1006060003010204010205010206010207010102BB
:100616000408102040803F065B4F666D7D077F6FA4
:10062600777C395E79710200000201000002000049
:10063600030000040000050000060000070000019A
:0606460002030405060793
:00000001FF
