:100000000C942A000C9447000C9447000C94470071
:100010000C9447000C9447000C9447000C94470044
:100020000C9447000C9447000C9447000C94470034
:100030000C9447000C9447000C9447000C94470024
:100040000C9447000C9447000C9447000C94470014
:100050000C94470011241FBECFE5D8E0DEBFCDBF12
:1000600010E0A0E6B0E0ECE9F2E002C005900D92ED
:10007000A837B107D9F710E0A8E7B0E001C01D929A
:10008000A83AB107E1F70E944B010C944C010C9483
:10009000000008958430B0F56830A0F5813091F00B
:1000A000813028F0823021F1833061F516C02BB306
:1000B000842F90E002C0880F991F6A95E2F7282BE1
:1000C0002BBB089528B3842F90E002C0880F991F9E
:1000D0006A95E2F7282B28BB089525B3842F90E07A
:1000E00002C0880F991F6A95E2F7282B25BB089557
:1000F00022B3842F90E002C0880F991F6A95E2F71F
:10010000282B22BB08958430B0F56830A0F58130EB
:1001100091F0813028F0823021F1833061F516C0F2
:100120002AB3842F90E002C0880F991F6A95E2F7E6
:10013000282B2ABB089527B3842F90E002C0880F94
:10014000991F6A95E2F7282B27BB089524B3842FC3
:1001500090E002C0880F991F6A95E2F7282B24BB14
:10016000089521B3842F90E002C0880F991F6A95EB
:10017000E2F7282B21BB0895843080F4813049F0C8
:10018000813028F0823049F0833041F404C06BBBE9
:10019000089568BB089565BB089562BB08958430D7
:1001A00080F4813049F0813028F0823049F083308A
:1001B00041F404C06ABB089567BB089564BB089509
:1001C00061BB08958430C0F4813049F0813028F05B
:1001D000823049F0833081F404C089B305C086B30E
:1001E00003C083B301C080B390E002C095958795AA
:1001F0006A95E2F78170089580E00895843088F46C
:10020000813049F0813028F0823049F0833049F460
:1002100004C089B3089586B3089583B3089580B365
:10022000089580E00895462F90E0FC01EE0FFF1F37
:10023000E80FF91FE05AFF4F808161810E9483001F
:1002400008950F931F9390E08C01000F111F080F6A
:10025000191F005A1F4FF8018081618141E00E94FF
:100260004A00F8018081618142810E9483001F91D0
:100270000F910895CF93DF93C0E6D0E08881698124
:1002800041E00E944A00239680E0C837D807B1F7C2
:0C029000DF91CF910895FFCFF894FFCFCD
:10029C000000000001000002000003000004000048
:0802AC00050000060000070038
:00000001FF
