:100000000C942A000C943F000C943F000C943F0089
:100010000C943F000C943F000C943F000C943F0064
:100020000C943F000C943F000C943F000C943F0054
:100030000C943F000C943F000C943F000C943F0044
:100040000C943F000C943F000C943F000C943F0034
:100050000C943F0011241FBECFE5D8E0DEBFCDBF1A
:1000600010E0A0E6B0E0ECEDF2E002C005900D92E9
:10007000A837B107D9F70E946B010C946C010C945E
:100080000000843008F03EC06830E0F5813079F03F
:10009000813028F0823041F18330A1F510C0E0B307
:1000A000F0E0E1A1F0E0E1A1F0E0E1A101C0E0B306
:1000B000F0E0E1A1F0E0E1A1F0E0E1A101C0E0B3F6
:1000C000F0E0E1A1F0E0E1A1F0E0E1A1F0E0E1A1E8
:1000D000F0E021A1842F90E002C0880F991F6A955B
:1000E000E2F7282B21A30895E0B3F0E0E1A1F0E0CE
:1000F00021A1842F90E002C0880F991F6A95E2F732
:10010000282B21A308958430D0F56830C0F58130C4
:1001100079F0813028F0823031F1833081F510C0E0
:10012000E0B3F0E0E1A1F0E0E1A1F0E0E1A101C085
:10013000E0B3F0E0E1A1F0E0E1A1F0E0E1A101C075
:10014000E0B3F0E0E1A1F0E0E1A1F0E0E1A1F0E056
:1001500021A1842F90E002C0880F991F6A95E2F7D1
:10016000282B21A30895E0B3F0E021A1842F90E093
:1001700002C0880F991F6A95E2F7282B21A30895E2
:10018000843050F5813079F0813028F08230F9F0F8
:10019000833011F510C0E0B3F0E0E1A1F0E0E1A19F
:1001A000F0E0E1A101C0E0B3F0E0E1A1F0E0E1A105
:1001B000F0E0E1A101C0E0B3F0E0E1A1F0E0E1A1F5
:1001C000F0E0E1A1F0E0E1A1F0E061A30895E0B387
:1001D000F0E0E1A1F0E061A30895843030F58130D2
:1001E00079F0813028F08230E9F08330F1F410C0EA
:1001F000E0B3F0E0E1A1F0E0E1A1F0E0E1A101C0B5
:10020000E0B3F0E0E1A1F0E0E1A1F0E0E1A101C0A4
:10021000E0B3F0E0E1A1F0E0E1A1F0E0E1A1F0E085
:1002200061A30895E0B3F0E061A30895843050F530
:10023000813079F0813028F08230D9F0833011F5A7
:1002400010C0E0B3F0E0E1A1F0E0E1A1F0E0E1A155
:1002500001C0E0B3F0E0E1A1F0E0E1A1F0E0E1A154
:1002600001C0E0B3F0E0E1A1F0E0E1A1F0E081A1A4
:1002700001C080B390E002C0959587956A95E2F73A
:100280008170089580E00895843018F5813079F008
:10029000813028F08230D9F08330D9F416C0E0B331
:1002A000F0E0E1A1F0E0E1A1F0E0E1A101C0E0B304
:1002B000F0E0E1A1F0E0E1A1F0E0E1A1F0E0E1A1F6
:1002C000F0E0E1A1F0E081A10895E0B3F7CF80B3C1
:0C02D000089580E00895FFCFF894FFCF60
:1002DC001B001A0019001800170016001500140056
:0802EC001300120011000000D4
:00000001FF
