:100000000C942A000C9447000C9447000C94470071
:100010000C9447000C9447000C9447000C94470044
:100020000C9447000C9447000C9447000C94470034
:100030000C9447000C9447000C9447000C94470024
:100040000C9447000C9447000C9447000C94470014
:100050000C94470011241FBECFE5D8E0DEBFCDBF12
:1000600011E0A0E6B0E0E2E2F0E102C005900D92FE
:10007000A235B107D9F711E0A2E5B1E001C01D92A8
:10008000A238B107E1F70E94C8070C940F080C943E
:10009000000008950895843008F061C0683008F0C9
:1000A0005EC08130F1F0813038F0823009F443C015
:1000B000833009F054C02AC08AB321E030E0062E14
:1000C00002C0220F331F0A94E2F720952823842FC1
:1000D00090E002C0880F991F6A95E2F7282B2ABB8F
:1000E000089587B321E030E0062E02C0220F331FAF
:1000F0000A94E2F720952823842F90E002C0880F0D
:10010000991F6A95E2F7282B27BB089584B321E055
:1001100030E0062E02C0220F331F0A94E2F720952A
:100120002823842F90E002C0880F991F6A95E2F778
:10013000282B24BB089581B321E030E0062E02C0B5
:10014000220F331F0A94E2F720952823842F90E092
:1001500002C0880F991F6A95E2F7282B21BB0895EA
:10016000843008F061C0683008F05EC08130F1F082
:10017000813038F0823009F443C0833009F054C034
:100180002AC08BB321E030E0062E02C0220F331FBD
:100190000A94E2F720952823842F90E002C0880F6C
:1001A000991F6A95E2F7282B2BBB089588B321E0AD
:1001B00030E0062E02C0220F331F0A94E2F720958A
:1001C0002823842F90E002C0880F991F6A95E2F7D8
:1001D000282B28BB089585B321E030E0062E02C00D
:1001E000220F331F0A94E2F720952823842F90E0F2
:1001F00002C0880F991F6A95E2F7282B25BB089546
:1002000082B321E030E0062E02C0220F331F0A9491
:10021000E2F720952823842F90E002C0880F991FD1
:100220006A95E2F7282B22BB0895843080F4813050
:1002300049F0813028F0823049F0833041F404C025
:100240006ABB089567BB089564BB089561BB0895B8
:10025000843080F4813049F0813028F0823049F0D8
:10026000833041F404C06BBB089568BB089565BB3F
:10027000089562BB08958430C8F4813049F081301C
:1002800028F0823089F0833089F404C029B303C098
:1002900026B301C023B381E090E002C0880F991F0C
:1002A0006A95E2F7282303C020B3F5CF20E0822F20
:1002B0000895843088F4813049F0813028F082300C
:1002C00049F0833049F404C089B3089586B3089592
:1002D00083B3089580B3089580E00895882319F0CA
:1002E000813091F409C0E62FF0E0E95FFE4F81E034
:1002F00060810E9428010895E62FF0E0E95FFE4F3B
:1003000081E060810E9428010895882319F08130DE
:1003100091F409C0E62FF0E0E15FFE4F81E06081DB
:100320000E9428010895E62FF0E0E15FFE4F81E092
:1003300060810E9428010895882319F0813081F49A
:1003400008C08091AA006091AB0041E00E94B0001B
:1003500008958091C5006091C60041E00E94B00000
:100360000895882319F0813081F408C08091AA0093
:100370006091AB0040E00E94B00008958091C500FC
:100380006091C60040E00E94B0000895882319F0F3
:100390008130F1F40FC0862F90E0FC01EE0FFF1FBB
:1003A000E80FF91FEE56FF4F8081618142810E9464
:1003B000B0000895862F90E0FC01EE0FFF1FE80FBC
:1003C000F91FE355FF4F8081618142810E94B00097
:1003D0000895882319F08130F1F40FC0862F90E042
:1003E000FC01EE0FFF1FE80FF91FEE56FF4F808153
:1003F000618141E00E944B000895862F90E0FC014E
:10040000EE0FFF1FE80FF91FE355FF4F8081618159
:1004100041E00E944B0008951F93882319F081301A
:10042000D1F40DC010E080E0612F0E94E90180E06E
:10043000612F0E94C6011F5F1930A9F70CC010E0A0
:1004400081E0612F0E94E90181E0612F0E94C601D5
:100450001F5F1930A9F71F910895462F90E0FC0106
:10046000EE0FFF1FE80FF91FE15EFE4F80816181F3
:100470000E94B0000895EF92FF920F931F9390E0B7
:100480008C01000F111F080F191F015E1E4FF8018C
:10049000F080E1808F2D6E2D41E00E944B008F2D6A
:1004A0006E2DF80142810E94B0001F910F91FF90C4
:1004B000EF9008951F9310E0812F0E943B021F5F71
:1004C0001830D1F71F910895CF92DF92EF92FF92EB
:1004D0001F93182F8091CD006091CE0040E00E94C4
:1004E000B0009DECE92E90E0F92E8091CB00609158
:1004F000CC0040E00E94B0008CEFC82E8FEFD82EC9
:10050000CE0CDF1C8DEF9FEFE80EF91EF601808107
:10051000F701608141E00E94B0008091C800612F26
:100520000E942801F6018081F701608140E00E946D
:10053000B00080EE9EE20197F1F7F6018081F701AD
:10054000608141E00E94B00080EF95E50197F1F7EE
:100550001F91FF90EF90DF90CF9008958CE00E9464
:100560006402089588E00E9464020895982F862FFF
:100570008150803148F4992319F0913029F4605C5E
:10058000862F80680E946402089581E00E946402C0
:1005900080E09DE70197F1F70895CF92DF92EF9207
:1005A000FF921F93182F8091CD006091CE0041E003
:1005B0000E94B0003DECE32E30E0F32E8091CB00A2
:1005C0006091CC0040E00E94B0002CEFC22E2FEFD3
:1005D000D22ECE0CDF1C8DEF9FEFE80EF91EF60138
:1005E0008081F701608141E00E94B0008091C800E5
:1005F000612F0E942801F6018081F701608140E0AF
:100600000E94B00080E197E20197F1F71F91FF90FF
:10061000EF90DF90CF900895AF92BF92DF92EF926C
:10062000FF920F931F93DF93CF93CDB7DEB72A9737
:100630000FB6F894DEBF0FBECDBF7B018C016115F4
:1006400071058105910521F480E30E94CD0244C02B
:100650005E010894A11CB11CDD24C801B7012AE089
:1006600030E040E050E00E94ED07F5016083D39454
:10067000FAE0DF16A1F0C801B7012AE030E040E05F
:1006800050E00E94ED07C901DA017C018D01089458
:10069000A11CB11CE114F10401051105F1F6DA9475
:1006A0008D2D992787FD9095D3948E010F5F1F4F55
:1006B000080F191F40EDE42E47E0F42EDA94F801FC
:1006C0008081805D80830E94CD02C7010197F1F790
:1006D000015010401D1494F32A960FB6F894DEBF13
:1006E0000FBECDBFCF91DF911F910F91FF90EF9083
:1006F000DF90BF90AF900895EF92FF921F93CF933A
:10070000DF93EC0110E050EDE52E57E0F52E06C02A
:100710000E94CD02C7010197F1F71F5FFE01E10FB3
:10072000F11D80818823A1F7DF91CF911F91FF9068
:10073000EF900895EF92FF920F931F93182F8091DF
:10074000C9006091CA0041E00E944B008091CB003B
:100750006091CC0041E00E944B008091CD006091FF
:10076000CE0041E00E944B008091C8006FEF0E94D4
:10077000150180E69AEE0197F1F782E00E9464028B
:1007800060E3E62E65E7F62EC7010197F1F7812FAA
:100790000E94640200ED17E0C8010197F1F78CE0B8
:1007A0000E946402C8010197F1F781E00E9464028F
:1007B000C7010197F1F786E00E94640280EA9FE09A
:1007C0000197F1F71F910F91FF90EF9008954F92CD
:1007D0005F926F927F928F929F92AF92BF92CF92D1
:1007E000DF92EF92FF920F931F93DF93CF9300D08E
:1007F0000F92CDB7DEB73C0119828FEF8A83C0908C
:10080000E0001B8240E2442E4EE4542E65C0AC2C26
:10081000BB24F501EE0FFF1FEE0FFF1FE153FF4F4B
:100820008081618140E00E94B000D090D0003FC044
:100830000D2D10E07801EE0CFF1CEE0CFF1C8FEC70
:1008400090E0E80EF91E47010894811C911CF70105
:10085000808161810E943B0189838981882331F5F0
:100860008091E0009501281B31098091D000081B80
:100870001109000F111F000F111F020F131F015C40
:100880001E4FF80180818A83840107C0F7018081AF
:10089000F80160810E943B01898389818823B1F33B
:1008A000C2010197F1F7F1E0FB8306C0D394809178
:1008B000DC008D1508F0BCCFF501EE0FFF1FEE0F29
:1008C000FF1FE153FF4F8081618141E00E94B00032
:1008D0008B81813031F0C3948091EC008C1508F04D
:1008E00096CF8A81F30180830F900F900F90CF9164
:1008F000DF911F910F91FF90EF90DF90CF90BF900D
:10090000AF909F908F907F906F905F904F900895E1
:10091000CF93DF93CFECD0E0888169814A810E9438
:100920004B00888169814B810E94B000249680E051
:10093000CF3ED80789F7DF91CF9108950F931F938A
:1009400090E08C01000F111F080F191F01511F4F5C
:10095000F801808161810E943B01282FF80192817A
:10096000913021F480E0222349F407C0992311F04B
:100970008FEF04C080E0213009F481E01F910F91D6
:1009800008950F931F9390E08C01000F111F080F23
:10099000191F01511F4FF8018081618140E00E94C1
:1009A0004B00F8018081618142810E94B0001F915B
:1009B0000F910895CF93DF93CFEED0E088816981C6
:1009C00040E00E944B00888169814A810E94B0000A
:1009D000239681E0C730D80789F7DF91CF9108953A
:1009E000AF92BF92CF92DF92EF92FF920F931F933D
:1009F000DF93CF9300D0CDB7DEB71982CC24DD24AE
:100A000000E010E0EE24FF241A825E010894A11C8D
:100A1000B11CC5010E94E70369816F3FD1F36C30BF
:100A200029F16D3030F46A3061F06B3009F092C01A
:100A300014C06E3071F16E3010F16F3009F08AC061
:100A400031C0DD2019F0DD24D394E3CF8AE20E9487
:100A5000CD02DD24D3948AE01AC0DD20D1F68FE2E6
:100A60000E94CD02DD24D3948BE011C0DD2089F6F5
:100A70008BE20E94CD02DD24D3948CE008C0DD20FF
:100A800041F68DE20E94CD02DD24D3948DE08A836D
:100A9000C0CF0E94C502CC24DD2400E010E0EE248B
:100AA000FF24B7CF8A818C3039F18D3030F48A3011
:100AB00059F08B3009F073C010C08A818D30F9F085
:100AC0008E3009F06CC027C00E9DC0010F9D900DA7
:100AD0001E9D900D11247C0115C0E114F10431F428
:100AE000F5E8EF2EF12C012D112D18C0C801B7012A
:100AF0000E94D9077B0106C00E0D1F1D02C00E19F2
:100B00001F09780100E010E085E8E816F10401050E
:100B1000110561F403C00E94C50241C081E061E09B
:100B20000E94B60280E690E00E947C038DE30E9462
:100B3000CD02C801B7010E940C030F900F90CF9116
:100B4000DF911F910F91FF90EF90DF90CF90BF90BA
:100B5000AF900895262F30E0CC2079F4C801E3E06F
:100B6000880F991FEA95E1F7000F111F080F191F51
:100B7000020F131FCC24C3940CC0C70153E0880F8D
:100B8000991F5A95E1F7EE0CFF1CE80EF91EE20ED4
:100B9000F31E70E080E090E00E940C033ACFEE2458
:100BA000FF248701C3CF88E30E949A030E94880430
:100BB0000895882321F0813009F0FAC07DC081E0DA
:100BC0000E949C0180E593EC0197F1F780E00E9480
:100BD000B10180E063E00E946E018EE591E028ECB7
:100BE00030E0F9013197F1F70197D9F780E064E03F
:100BF0000E946E018EE591E028EC30E0F90131971A
:100C0000F1F70197D9F780E065E00E946E018EE56B
:100C100091E028EC30E0F9013197F1F70197D9F72D
:100C200080E060E00E946E018EE591E028EC30E00B
:100C3000F9013197F1F70197D9F780E00E949C0103
:100C400080E593EC0197F1F781E00E94B10181E02A
:100C500060E00E946E018EE591E028EC30E0F90141
:100C60003197F1F70197D9F781E061E00E946E01B9
:100C70008EE591E028EC30E0F9013197F1F701972A
:100C8000D9F781E062E00E946E018EE591E028ECE8
:100C900030E0F9013197F1F70197D9F781E063E08E
:100CA0000E946E018EE591E028EC30E0F901319769
:100CB000F1F70197D9F7089581E00E949C0180E542
:100CC00093EC0197F1F780E00E94B10180E060E0D1
:100CD0000E946E018EE591E028EC30E0F901319739
:100CE000F1F70197D9F780E065E00E946E018EE58B
:100CF00091E028EC30E0F9013197F1F70197D9F74D
:100D000080E064E00E946E018EE591E028EC30E026
:100D1000F9013197F1F70197D9F780E063E00E947C
:100D20006E018EE591E028EC30E0F9013197F1F7A2
:100D30000197D9F780E00E949C0180E593EC019730
:100D4000F1F781E00E94B10181E063E00E946E0151
:100D50008EE591E028EC30E0F9013197F1F7019749
:100D6000D9F781E062E00E946E018EE591E028EC07
:100D700030E0F9013197F1F70197D9F781E061E0AF
:100D80000E946E018EE591E028EC30E0F901319788
:100D9000F1F70197D9F781E060E00E946E018EE5DE
:100DA00091E028EC30E0F9013197F1F70197D9F79C
:100DB000089580E00E949E04813011F480E001C01B
:100DC00081E00E94D905089580E00E940C0281E034
:100DD0000E940C0280E00E94C1040895FF920F93CC
:100DE0001F93F82E81E00E949C0180E00E94B101D7
:100DF0008F2D6AE00E94CD07682F80E00E94850158
:100E000000E61AEEC8010197F1F780E00E949C010C
:100E100081E00E94B1018F2D6AE00E94CD0781E040
:100E2000692F0E948501C8010197F1F71F910F9169
:100E3000FF90089580E00E940C0281E00E940C0265
:100E40000895BF92CF92DF92EF92FF920F931F937C
:100E5000DF93CF93CDB7DEB728970FB6F894DEBFF8
:100E60000FBECDBFDE011196E7E7F0E088E001900C
:100E70000D928150E1F700E010E06E010894C11C72
:100E8000D11CBB24B39488ECE82EF12C802F612F69
:100E90000E94B602C6010E947C030B2584EF91E0FC
:100EA000F7013197F1F70197D9F70E94C5021F5F4B
:100EB0001F3061F728960FB6F894DEBF0FBECDBF86
:100EC000CF91DF911F910F91FF90EF90DF90CF9026
:100ED000BF9008958F929F92AF92BF92CF92DF9270
:100EE000EF92FF920F931F93DF93CF93CDB7DEB7AF
:100EF00063970FB6F894DEBF0FBECDBFDE0111962B
:100F0000EFE7F0E083E101900D928150E1F76E018F
:100F10000894C11CD11C8601FF24EE24E39420E236
:100F2000822E2EE4922E94E1A92EB12CAC0EBD1E81
:100F3000602F6C198F2D0E94B602F80181918F01EC
:100F40000E94CD02FE24C4010197F1F70A151B058A
:100F500079F70E94C50263960FB6F894DEBF0FBE04
:100F6000CDBFCF91DF911F910F91FF90EF90DF9058
:100F7000CF90BF90AF909F908F90089588E30E948C
:100F80009A0380E00E94C10481E00E94C104089598
:100F90000E94D3050E94F004FDCF991B79E004C0A4
:100FA000991F961708F0961B881F7A95C9F78095A8
:100FB0000895AA1BBB1B51E107C0AA1FBB1FA617A0
:100FC000B70710F0A61BB70B881F991F5A95A9F7F2
:100FD00080959095BC01CD010895A1E21A2EAA1B1F
:100FE000BB1BFD010DC0AA1FBB1FEE1FFF1FA217D9
:100FF000B307E407F50720F0A21BB30BE40BF50BD6
:10100000661F771F881F991F1A9469F7609570955E
:10101000809590959B01AC01BD01CF010895F89496
:02102000FFCF00
:101022004552523A204449565F42595F5A45524FFF
:101032005F464C414721004D4F48414D4544004DCC
:101042004F48414D45444153485241464641544818
:101052005900010000010100010200010300010426
:101062000001050001060001070000000101000067
:101072000101000102000103000104000105000159
:101082000600010700000101000200020102020144
:101092000000010101000101020001010300010140
:1010A200040101010501010106010101070101021B
:1010B200030102040102020100030102040102050C
:1010C2000102060102070101020408102040803FCC
:1010D200065B4F666D7D077F6F777C395E797103A2
:1010E20007000201000002000003000004000005E6
:1010F20000000600000700000102030405060701C4
:1011020002030A0405060B0708090C000F0E0D2343
:02111200191EA4
:00000001FF
