:100000000C942A000C9447000C9447000C94470071
:100010000C9447000C9447000C9447000C94470044
:100020000C9447000C9447000C9447000C94470034
:100030000C9447000C9447000C9447000C94470024
:100040000C9447000C9447000C9447000C94470014
:100050000C94470011241FBECFE5D8E0DEBFCDBF12
:1000600011E0A0E6B0E0E8E3FCE002C005900D92EC
:10007000A230B107D9F711E0A2E0B1E001C01D92B2
:10008000A233B107E1F70E94E7050C941A060C941D
:10009000000008950895843008F061C0683008F0C9
:1000A0005EC08130F1F0813038F0823009F443C015
:1000B000833009F054C02AC08AB321E030E0062E14
:1000C00002C0220F331F0A94E2F720952823842FC1
:1000D00090E002C0880F991F6A95E2F7282B2ABB8F
:1000E000089587B321E030E0062E02C0220F331FAF
:1000F0000A94E2F720952823842F90E002C0880F0D
:10010000991F6A95E2F7282B27BB089584B321E055
:1001100030E0062E02C0220F331F0A94E2F720952A
:100120002823842F90E002C0880F991F6A95E2F778
:10013000282B24BB089581B321E030E0062E02C0B5
:10014000220F331F0A94E2F720952823842F90E092
:1001500002C0880F991F6A95E2F7282B21BB0895EA
:10016000843008F061C0683008F05EC08130F1F082
:10017000813038F0823009F443C0833009F054C034
:100180002AC08BB321E030E0062E02C0220F331FBD
:100190000A94E2F720952823842F90E002C0880F6C
:1001A000991F6A95E2F7282B2BBB089588B321E0AD
:1001B00030E0062E02C0220F331F0A94E2F720958A
:1001C0002823842F90E002C0880F991F6A95E2F7D8
:1001D000282B28BB089585B321E030E0062E02C00D
:1001E000220F331F0A94E2F720952823842F90E0F2
:1001F00002C0880F991F6A95E2F7282B25BB089546
:1002000082B321E030E0062E02C0220F331F0A9491
:10021000E2F720952823842F90E002C0880F991FD1
:100220006A95E2F7282B22BB0895843080F4813050
:1002300049F0813028F0823049F0833041F404C025
:100240006ABB089567BB089564BB089561BB0895B8
:10025000843080F4813049F0813028F0823049F0D8
:10026000833041F404C06BBB089568BB089565BB3F
:10027000089562BB08958430C8F4813049F081301C
:1002800028F0823089F0833089F404C029B303C098
:1002900026B301C023B381E090E002C0880F991F0C
:1002A0006A95E2F7282303C020B3F5CF20E0822F20
:1002B0000895843088F4813049F0813028F082300C
:1002C00049F0833049F404C089B3089586B3089592
:1002D00083B3089580B3089580E00895882319F0CA
:1002E000813091F409C0E62FF0E0EA53FF4F81E03E
:1002F00060810E9428010895E62FF0E0EA53FF4F45
:1003000081E060810E9428010895882319F08130DE
:1003100091F409C0E62FF0E0E253FF4F81E06081E5
:100320000E9428010895E62FF0E0E253FF4F81E09C
:1003300060810E9428010895882319F0813081F49A
:1003400008C08091890060918A0041E00E94B0005D
:1003500008958091A4006091A50041E00E94B00042
:100360000895882319F0813081F408C080918900B4
:1003700060918A0040E00E94B00008958091A4003E
:100380006091A50040E00E94B0000895882319F014
:100390008130F1F40FC0862F90E0FC01EE0FFF1FBB
:1003A000E80FF91FEF58FF4F8081618142810E9461
:1003B000B0000895862F90E0FC01EE0FFF1FE80FBC
:1003C000F91FE457FF4F8081618142810E94B00094
:1003D0000895882319F08130F1F40FC0862F90E042
:1003E000FC01EE0FFF1FE80FF91FEF58FF4F808150
:1003F000618141E00E944B000895862F90E0FC014E
:10040000EE0FFF1FE80FF91FE457FF4F8081618156
:1004100041E00E944B0008951F93882319F081301A
:10042000D1F40DC010E080E0612F0E94E90180E06E
:10043000612F0E94C6011F5F1930A9F70CC010E0A0
:1004400081E0612F0E94E90181E0612F0E94C601D5
:100450001F5F1930A9F71F91089590E0FC01EE0F7E
:10046000FF1FE80FF91FE252FF4F80816181428137
:100470000E94B0000895EF92FF920F931F9390E0B7
:100480008C01000F111F080F191F02521F4FF80196
:10049000F080E1808F2D6E2D41E00E944B008F2D6A
:1004A0006E2DF80142810E94B0001F910F91FF90C4
:1004B000EF900895CF93DF93CEEDD0E088816981EE
:1004C00041E00E944B00239680E0C63FD807B1F779
:1004D000DF91CF910895CF92DF92EF92FF921F9319
:1004E000182F8091AC006091AD0040E00E94B000F8
:1004F0009CEAE92E90E0F92E8091AA006091AB0071
:1005000040E00E94B0008CEFC82E8FEFD82ECE0CAA
:10051000DF1C8DEF9FEFE80EF91EF6018081F701D9
:10052000608141E00E94B0008091A700612F0E948D
:100530002801F6018081F701608140E00E94B0004F
:1005400080EE9EE20197F1F7F6018081F70160816C
:1005500041E00E94B00080EF95E50197F1F71F910F
:10056000FF90EF90DF90CF9008958CE00E946B0297
:10057000089588E00E946B020895982F862F81507D
:10058000803148F4992319F0913029F4605C862F6A
:1005900080680E946B02089581E00E946B0280E0F7
:1005A0009DE70197F1F70895CF92DF92EF92FF92C6
:1005B0001F93182F8091AC006091AD0041E00E9424
:1005C000B0003CEAE32E30E0F32E8091AA00609167
:1005D000AB0040E00E94B0002CEFC22E2FEFD22ED5
:1005E000CE0CDF1C8DEF9FEFE80EF91EF601808127
:1005F000F701608141E00E94B0008091A700612F67
:100600000E942801F6018081F701608140E00E948C
:10061000B00080EE9EE20197F1F7F6018081F701CC
:10062000608141E00E94B00080EF95E50197F1F70D
:100630001F91FF90EF90DF90CF900895AF92BF92FF
:10064000DF92EF92FF920F931F93DF93CF93CDB77B
:10065000DEB72A970FB6F894DEBF0FBECDBF7B0181
:100660008C015E010894A11CB11CDD241BC0C801D3
:10067000B7012AE030E040E050E00E94F805F501C3
:1006800061935F01D394FAE0DF1689F0C801B701E6
:100690002AE030E040E050E00E94F805C901DA01AC
:1006A0007C018D01E114F1040105110501F7DA94D3
:1006B0008D2D992787FD9095D3948E010F5F1F4F45
:1006C000080F191F40EDE42E47E0F42EDA94F801EC
:1006D0008081805D80830E94D402C7010197F1F779
:1006E000015010401D1494F32A960FB6F894DEBF03
:1006F0000FBECDBFCF91DF911F910F91FF90EF9073
:10070000DF90BF90AF900895EF92FF921F93CF9329
:10071000DF93EC0110E050EDE52E57E0F52E06C01A
:100720000E94D402C7010197F1F71F5FFE01E10F9C
:10073000F11D80818823A1F7DF91CF911F91FF9058
:10074000EF900895EF92FF920F931F93182F8091CF
:10075000A8006091A90041E00E944B008091AA008E
:100760006091AB0041E00E944B008091AC00609131
:10077000AD0041E00E944B008091A7006FEF0E9406
:10078000150180E69AEE0197F1F782E00E946B0274
:1007900060E3E62E65E7F62EC7010197F1F7812F9A
:1007A0000E946B0200ED17E0C8010197F1F78CE0A1
:1007B0000E946B02C8010197F1F781E00E946B0271
:1007C000C7010197F1F786E00E946B0280EA9FE083
:1007D0000197F1F71F910F91FF90EF9008950F93FC
:1007E0001F9390E08C01000F111F080F191F025575
:1007F0001F4FF801808161810E943B01282FF80181
:100800009281913021F480E0222349F407C099239A
:1008100011F08FEF04C080E0213009F481E01F91D6
:100820000F9108950F931F9390E08C01000F111FFB
:10083000080F191F02551F4FF8018081618140E0A8
:100840000E944B00F8018081618142810E94B000CA
:100850001F910F910895CF93DF93CEEAD0E0888166
:10086000698140E00E944B00888169814A810E9431
:10087000B000239680E0C63CD80789F7DF91CF917E
:100880000895882321F0813009F0FAC07DC081E00D
:100890000E949C0180E593EC0197F1F780E00E94B3
:1008A000B10180E063E00E946E018EE591E028ECEA
:1008B00030E0F9013197F1F70197D9F780E064E072
:1008C0000E946E018EE591E028EC30E0F90131974D
:1008D000F1F70197D9F780E065E00E946E018EE59F
:1008E00091E028EC30E0F9013197F1F70197D9F761
:1008F00080E060E00E946E018EE591E028EC30E03F
:10090000F9013197F1F70197D9F780E00E949C0136
:1009100080E593EC0197F1F781E00E94B10181E05D
:1009200060E00E946E018EE591E028EC30E0F90174
:100930003197F1F70197D9F781E061E00E946E01EC
:100940008EE591E028EC30E0F9013197F1F701975D
:10095000D9F781E062E00E946E018EE591E028EC1B
:1009600030E0F9013197F1F70197D9F781E063E0C1
:100970000E946E018EE591E028EC30E0F90131979C
:10098000F1F70197D9F7089581E00E949C0180E575
:1009900093EC0197F1F780E00E94B10180E060E004
:1009A0000E946E018EE591E028EC30E0F90131976C
:1009B000F1F70197D9F780E065E00E946E018EE5BE
:1009C00091E028EC30E0F9013197F1F70197D9F780
:1009D00080E064E00E946E018EE591E028EC30E05A
:1009E000F9013197F1F70197D9F780E063E00E94B0
:1009F0006E018EE591E028EC30E0F9013197F1F7D6
:100A00000197D9F780E00E949C0180E593EC019763
:100A1000F1F781E00E94B10181E063E00E946E0184
:100A20008EE591E028EC30E0F9013197F1F701977C
:100A3000D9F781E062E00E946E018EE591E028EC3A
:100A400030E0F9013197F1F70197D9F781E061E0E2
:100A50000E946E018EE591E028EC30E0F9013197BB
:100A6000F1F70197D9F781E060E00E946E018EE511
:100A700091E028EC30E0F9013197F1F70197D9F7CF
:100A8000089580E00E94EF03813011F480E001C0FE
:100A900081E00E944104089580E00E940C0281E000
:100AA0000E940C0280E00E9412040895FF920F93AE
:100AB0001F93F82E81E00E949C0180E00E94B1010A
:100AC0008F2D6AE00E94EC05682F80E00E9485016E
:100AD00000E61AEEC8010197F1F780E00E949C0140
:100AE00081E00E94B1018F2D6AE00E94EC0581E057
:100AF000692F0E948501C8010197F1F71F910F919D
:100B0000FF90089580E00E940C0281E00E940C0298
:100B10000895AF92BF92CF92DF92FF920F931F93EF
:100B2000DF93CF93CDB7DEB761970FB6F894DEBFF2
:100B30000FBECDBFDE011196E0E6F0E081E101904D
:100B40000D928150E1F75E010894A11CB11C850152
:100B5000FF24F39480E4C82E8CE9D82E602F6A1904
:100B600080E00E94BD02F80180810E94D402C6018B
:100B70000197F1F781E06F2D0E94BD02F80181819C
:100B80000E94D402C6010197F1F70E94CC02F394AF
:100B90000F5F1F4FF0E1FF1609F761960FB6F8944B
:100BA000DEBF0FBECDBFCF91DF911F910F91FF90A0
:100BB000DF90CF90BF90AF90089588E30E94A2038A
:100BC00080E00E94120481E00E94120408950E94B5
:100BD000DD050E948905FDCF991B79E004C0991FAE
:100BE000961708F0961B881F7A95C9F78095089587
:100BF000A1E21A2EAA1BBB1BFD010DC0AA1FBB1F21
:100C0000EE1FFF1FA217B307E407F50720F0A21B92
:100C1000B30BE40BF50B661F771F881F991F1A94FF
:100C200069F760957095809590959B01AC01BD0129
:080C3000CF010895F894FFCFF5
:100C38004D4F48414D454441534852414646415421
:100C4800000100000101000102000103000104008D
:100C58000105000106000107000000010100000174
:100C68000100010200010300010400010500010662
:100C78000001070000010100020002010202020354
:100C8800010204010202010003010204010205013C
:100C980002060102070101020408102040803F06F5
:100CA8005B4F666D7D077F6F777C395E79710200D7
:100CB800000201000002000003000004000005001B
:100CC80000060000070000010203040506072319B7
:020CD8001E00FC
:00000001FF
